{
  "contractName": "SolnSquareVerifier",
  "abi": [
    {
      "constant": true,
      "inputs": [
        {
          "name": "interfaceId",
          "type": "bytes4"
        }
      ],
      "name": "supportsInterface",
      "outputs": [
        {
          "name": "",
          "type": "bool"
        }
      ],
      "payable": false,
      "stateMutability": "view",
      "type": "function"
    },
    {
      "constant": true,
      "inputs": [
        {
          "name": "tokenId",
          "type": "uint256"
        }
      ],
      "name": "getApproved",
      "outputs": [
        {
          "name": "",
          "type": "address"
        }
      ],
      "payable": false,
      "stateMutability": "view",
      "type": "function"
    },
    {
      "constant": false,
      "inputs": [
        {
          "name": "to",
          "type": "address"
        },
        {
          "name": "tokenId",
          "type": "uint256"
        }
      ],
      "name": "approve",
      "outputs": [],
      "payable": false,
      "stateMutability": "nonpayable",
      "type": "function"
    },
    {
      "constant": true,
      "inputs": [],
      "name": "getSymbol",
      "outputs": [
        {
          "name": "",
          "type": "string"
        }
      ],
      "payable": false,
      "stateMutability": "view",
      "type": "function"
    },
    {
      "constant": true,
      "inputs": [],
      "name": "getName",
      "outputs": [
        {
          "name": "",
          "type": "string"
        }
      ],
      "payable": false,
      "stateMutability": "view",
      "type": "function"
    },
    {
      "constant": true,
      "inputs": [],
      "name": "totalSupply",
      "outputs": [
        {
          "name": "",
          "type": "uint256"
        }
      ],
      "payable": false,
      "stateMutability": "view",
      "type": "function"
    },
    {
      "constant": false,
      "inputs": [
        {
          "name": "from",
          "type": "address"
        },
        {
          "name": "to",
          "type": "address"
        },
        {
          "name": "tokenId",
          "type": "uint256"
        }
      ],
      "name": "transferFrom",
      "outputs": [],
      "payable": false,
      "stateMutability": "nonpayable",
      "type": "function"
    },
    {
      "constant": false,
      "inputs": [
        {
          "name": "_myid",
          "type": "bytes32"
        },
        {
          "name": "_result",
          "type": "string"
        }
      ],
      "name": "__callback",
      "outputs": [],
      "payable": false,
      "stateMutability": "nonpayable",
      "type": "function"
    },
    {
      "constant": true,
      "inputs": [],
      "name": "verifier",
      "outputs": [
        {
          "name": "",
          "type": "address"
        }
      ],
      "payable": false,
      "stateMutability": "view",
      "type": "function"
    },
    {
      "constant": true,
      "inputs": [
        {
          "name": "owner",
          "type": "address"
        },
        {
          "name": "index",
          "type": "uint256"
        }
      ],
      "name": "tokenOfOwnerByIndex",
      "outputs": [
        {
          "name": "",
          "type": "uint256"
        }
      ],
      "payable": false,
      "stateMutability": "view",
      "type": "function"
    },
    {
      "constant": false,
      "inputs": [
        {
          "name": "_myid",
          "type": "bytes32"
        },
        {
          "name": "_result",
          "type": "string"
        },
        {
          "name": "_proof",
          "type": "bytes"
        }
      ],
      "name": "__callback",
      "outputs": [],
      "payable": false,
      "stateMutability": "nonpayable",
      "type": "function"
    },
    {
      "constant": false,
      "inputs": [
        {
          "name": "_to",
          "type": "address"
        },
        {
          "name": "_tokenId",
          "type": "uint256"
        }
      ],
      "name": "mint",
      "outputs": [
        {
          "name": "",
          "type": "bool"
        }
      ],
      "payable": false,
      "stateMutability": "nonpayable",
      "type": "function"
    },
    {
      "constant": false,
      "inputs": [
        {
          "name": "from",
          "type": "address"
        },
        {
          "name": "to",
          "type": "address"
        },
        {
          "name": "tokenId",
          "type": "uint256"
        }
      ],
      "name": "safeTransferFrom",
      "outputs": [],
      "payable": false,
      "stateMutability": "nonpayable",
      "type": "function"
    },
    {
      "constant": true,
      "inputs": [],
      "name": "getbaseTokenURI",
      "outputs": [
        {
          "name": "",
          "type": "string"
        }
      ],
      "payable": false,
      "stateMutability": "view",
      "type": "function"
    },
    {
      "constant": true,
      "inputs": [
        {
          "name": "index",
          "type": "uint256"
        }
      ],
      "name": "tokenByIndex",
      "outputs": [
        {
          "name": "",
          "type": "uint256"
        }
      ],
      "payable": false,
      "stateMutability": "view",
      "type": "function"
    },
    {
      "constant": true,
      "inputs": [
        {
          "name": "tokenId",
          "type": "uint256"
        }
      ],
      "name": "ownerOf",
      "outputs": [
        {
          "name": "",
          "type": "address"
        }
      ],
      "payable": false,
      "stateMutability": "view",
      "type": "function"
    },
    {
      "constant": true,
      "inputs": [
        {
          "name": "owner",
          "type": "address"
        }
      ],
      "name": "balanceOf",
      "outputs": [
        {
          "name": "",
          "type": "uint256"
        }
      ],
      "payable": false,
      "stateMutability": "view",
      "type": "function"
    },
    {
      "constant": false,
      "inputs": [
        {
          "name": "to",
          "type": "address"
        },
        {
          "name": "approved",
          "type": "bool"
        }
      ],
      "name": "setApprovalForAll",
      "outputs": [],
      "payable": false,
      "stateMutability": "nonpayable",
      "type": "function"
    },
    {
      "constant": true,
      "inputs": [
        {
          "name": "",
          "type": "bytes32"
        }
      ],
      "name": "submitedSolutions",
      "outputs": [
        {
          "name": "",
          "type": "address"
        }
      ],
      "payable": false,
      "stateMutability": "view",
      "type": "function"
    },
    {
      "constant": false,
      "inputs": [
        {
          "name": "from",
          "type": "address"
        },
        {
          "name": "to",
          "type": "address"
        },
        {
          "name": "tokenId",
          "type": "uint256"
        },
        {
          "name": "_data",
          "type": "bytes"
        }
      ],
      "name": "safeTransferFrom",
      "outputs": [],
      "payable": false,
      "stateMutability": "nonpayable",
      "type": "function"
    },
    {
      "constant": false,
      "inputs": [
        {
          "name": "isPaused",
          "type": "bool"
        }
      ],
      "name": "setPause",
      "outputs": [],
      "payable": false,
      "stateMutability": "nonpayable",
      "type": "function"
    },
    {
      "constant": true,
      "inputs": [
        {
          "name": "tokenId",
          "type": "uint256"
        }
      ],
      "name": "tokenURI",
      "outputs": [
        {
          "name": "",
          "type": "string"
        }
      ],
      "payable": false,
      "stateMutability": "view",
      "type": "function"
    },
    {
      "constant": true,
      "inputs": [
        {
          "name": "owner",
          "type": "address"
        },
        {
          "name": "operator",
          "type": "address"
        }
      ],
      "name": "isApprovedForAll",
      "outputs": [
        {
          "name": "",
          "type": "bool"
        }
      ],
      "payable": false,
      "stateMutability": "view",
      "type": "function"
    },
    {
      "constant": false,
      "inputs": [
        {
          "name": "newOwner",
          "type": "address"
        }
      ],
      "name": "transferOwnership",
      "outputs": [],
      "payable": false,
      "stateMutability": "nonpayable",
      "type": "function"
    },
    {
      "inputs": [
        {
          "name": "_verifier",
          "type": "address"
        }
      ],
      "payable": false,
      "stateMutability": "nonpayable",
      "type": "constructor"
    },
    {
      "anonymous": false,
      "inputs": [
        {
          "indexed": false,
          "name": "index",
          "type": "uint256"
        },
        {
          "indexed": false,
          "name": "addr",
          "type": "address"
        }
      ],
      "name": "AddedSolution",
      "type": "event"
    },
    {
      "anonymous": false,
      "inputs": [
        {
          "indexed": true,
          "name": "from",
          "type": "address"
        },
        {
          "indexed": true,
          "name": "to",
          "type": "address"
        },
        {
          "indexed": true,
          "name": "tokenId",
          "type": "uint256"
        }
      ],
      "name": "Transfer",
      "type": "event"
    },
    {
      "anonymous": false,
      "inputs": [
        {
          "indexed": true,
          "name": "owner",
          "type": "address"
        },
        {
          "indexed": true,
          "name": "operator",
          "type": "address"
        },
        {
          "indexed": false,
          "name": "approved",
          "type": "bool"
        }
      ],
      "name": "ApprovalForAll",
      "type": "event"
    },
    {
      "anonymous": false,
      "inputs": [
        {
          "indexed": true,
          "name": "owner",
          "type": "address"
        },
        {
          "indexed": true,
          "name": "approved",
          "type": "address"
        },
        {
          "indexed": true,
          "name": "tokenId",
          "type": "uint256"
        }
      ],
      "name": "Approval",
      "type": "event"
    },
    {
      "anonymous": false,
      "inputs": [
        {
          "indexed": false,
          "name": "executor",
          "type": "address"
        }
      ],
      "name": "Paused",
      "type": "event"
    },
    {
      "anonymous": false,
      "inputs": [
        {
          "indexed": false,
          "name": "executor",
          "type": "address"
        }
      ],
      "name": "Unpaused",
      "type": "event"
    },
    {
      "anonymous": false,
      "inputs": [
        {
          "indexed": false,
          "name": "_newOwner",
          "type": "address"
        }
      ],
      "name": "TransferOwnership",
      "type": "event"
    },
    {
      "constant": true,
      "inputs": [
        {
          "name": "a",
          "type": "uint256[2]"
        },
        {
          "name": "b",
          "type": "uint256[2][2]"
        },
        {
          "name": "c",
          "type": "uint256[2]"
        },
        {
          "name": "input",
          "type": "uint256[2]"
        }
      ],
      "name": "getKey",
      "outputs": [
        {
          "name": "",
          "type": "bytes32"
        }
      ],
      "payable": false,
      "stateMutability": "pure",
      "type": "function"
    },
    {
      "constant": false,
      "inputs": [
        {
          "name": "_index",
          "type": "uint256"
        },
        {
          "name": "_address",
          "type": "address"
        },
        {
          "name": "_key",
          "type": "bytes32"
        }
      ],
      "name": "calculateSolution",
      "outputs": [],
      "payable": false,
      "stateMutability": "nonpayable",
      "type": "function"
    },
    {
      "constant": false,
      "inputs": [
        {
          "name": "_to",
          "type": "address"
        },
        {
          "name": "_tokenId",
          "type": "uint256"
        },
        {
          "name": "a",
          "type": "uint256[2]"
        },
        {
          "name": "b",
          "type": "uint256[2][2]"
        },
        {
          "name": "c",
          "type": "uint256[2]"
        },
        {
          "name": "input",
          "type": "uint256[2]"
        }
      ],
      "name": "mintToken",
      "outputs": [],
      "payable": false,
      "stateMutability": "nonpayable",
      "type": "function"
    }
  ],
  "bytecode": "0x60806040523480156200001157600080fd5b5060405162003c4938038062003c49833981810160405260208110156200003757600080fd5b81019080805190602001909291905050506040518060400160405280600781526020017f56374465706173000000000000000000000000000000000000000000000000008152506040518060400160405280600481526020017f76376473000000000000000000000000000000000000000000000000000000008152506040518060600160405280603f815260200162003c0a603f9139336000806101000a81548173ffffffffffffffffffffffffffffffffffffffff021916908373ffffffffffffffffffffffffffffffffffffffff16021790555060008060146101000a81548160ff021916908315150217905550620001406301ffc9a760e01b6200021e60201b60201c565b620001586380ac58cd60e01b6200021e60201b60201c565b6200017063780e9d6360e01b6200021e60201b60201c565b82600f908051906020019062000188929190620002be565b508160109080519060200190620001a1929190620002be565b508060119080519060200190620001ba929190620002be565b50620001d3635b5e139f60e01b6200021e60201b60201c565b50505080601360006101000a81548173ffffffffffffffffffffffffffffffffffffffff021916908373ffffffffffffffffffffffffffffffffffffffff160217905550506200036d565b63ffffffff60e01b817bffffffffffffffffffffffffffffffffffffffffffffffffffffffff191614156200025257600080fd5b6001806000837bffffffffffffffffffffffffffffffffffffffffffffffffffffffff19167bffffffffffffffffffffffffffffffffffffffffffffffffffffffff1916815260200190815260200160002060006101000a81548160ff02191690831515021790555050565b828054600181600116156101000203166002900490600052602060002090601f016020900481019282601f106200030157805160ff191683800117855562000332565b8280016001018555821562000332579182015b828111156200033157825182559160200191906001019062000314565b5b50905062000341919062000345565b5090565b6200036a91905b80821115620003665760008160009055506001016200034c565b5090565b90565b61388d806200037d6000396000f3fe608060405234801561001057600080fd5b50600436106101a95760003560e01c8063447ec2b7116100f9578063af68835611610097578063c87b56dd11610071578063c87b56dd14610d4d578063ccd5835a14610df4578063e985e9c514610f7f578063f2fde38b14610ffb576101a9565b8063af68835614610baa578063b88d4fde14610c18578063bedb86fb14610d1d576101a9565b806370a08231116100d357806370a082311461093557806383348b641461098d578063a01fcbcc14610b02578063a22cb46514610b5a576101a9565b8063447ec2b7146108025780634f6ccce7146108855780636352211e146108c7576101a9565b806323b872dd116101665780632f745c59116101405780632f745c591461057057806338bbfa50146105d257806340c10f191461072e57806342842e0e14610794576101a9565b806323b872dd146103f357806327dc297e146104615780632b7ac3f314610526576101a9565b806301ffc9a7146101ae578063081812fc14610213578063095ea7b31461028157806315070401146102cf57806317d7de7c1461035257806318160ddd146103d5575b600080fd5b6101f9600480360360208110156101c457600080fd5b8101908080357bffffffffffffffffffffffffffffffffffffffffffffffffffffffff1916906020019092919050505061103f565b604051808215151515815260200191505060405180910390f35b61023f6004803603602081101561022957600080fd5b81019080803590602001909291905050506110a7565b604051808273ffffffffffffffffffffffffffffffffffffffff1673ffffffffffffffffffffffffffffffffffffffff16815260200191505060405180910390f35b6102cd6004803603604081101561029757600080fd5b81019080803573ffffffffffffffffffffffffffffffffffffffff169060200190929190803590602001909291905050506110e4565b005b6102d76112da565b6040518080602001828103825283818151815260200191508051906020019080838360005b838110156103175780820151818401526020810190506102fc565b50505050905090810190601f1680156103445780820380516001836020036101000a031916815260200191505b509250505060405180910390f35b61035a61137c565b6040518080602001828103825283818151815260200191508051906020019080838360005b8381101561039a57808201518184015260208101905061037f565b50505050905090810190601f1680156103c75780820380516001836020036101000a031916815260200191505b509250505060405180910390f35b6103dd61141e565b6040518082815260200191505060405180910390f35b61045f6004803603606081101561040957600080fd5b81019080803573ffffffffffffffffffffffffffffffffffffffff169060200190929190803573ffffffffffffffffffffffffffffffffffffffff1690602001909291908035906020019092919050505061142b565b005b6105246004803603604081101561047757600080fd5b81019080803590602001909291908035906020019064010000000081111561049e57600080fd5b8201836020820111156104b057600080fd5b803590602001918460018302840111640100000000831117156104d257600080fd5b91908080601f016020809104026020016040519081016040528093929190818152602001838380828437600081840152601f19601f82011690508083019250505050505050919291929050505061144e565b005b61052e611491565b604051808273ffffffffffffffffffffffffffffffffffffffff1673ffffffffffffffffffffffffffffffffffffffff16815260200191505060405180910390f35b6105bc6004803603604081101561058657600080fd5b81019080803573ffffffffffffffffffffffffffffffffffffffff169060200190929190803590602001909291905050506114b7565b6040518082815260200191505060405180910390f35b61072c600480360360608110156105e857600080fd5b81019080803590602001909291908035906020019064010000000081111561060f57600080fd5b82018360208201111561062157600080fd5b8035906020019184600183028401116401000000008311171561064357600080fd5b91908080601f016020809104026020016040519081016040528093929190818152602001838380828437600081840152601f19601f820116905080830192505050505050509192919290803590602001906401000000008111156106a657600080fd5b8201836020820111156106b857600080fd5b803590602001918460018302840111640100000000831117156106da57600080fd5b91908080601f016020809104026020016040519081016040528093929190818152602001838380828437600081840152601f19601f82011690508083019250505050505050919291929050505061152a565b005b61077a6004803603604081101561074457600080fd5b81019080803573ffffffffffffffffffffffffffffffffffffffff1690602001909291908035906020019092919050505061152f565b604051808215151515815260200191505060405180910390f35b610800600480360360608110156107aa57600080fd5b81019080803573ffffffffffffffffffffffffffffffffffffffff169060200190929190803573ffffffffffffffffffffffffffffffffffffffff1690602001909291908035906020019092919050505061168f565b005b61080a6116af565b6040518080602001828103825283818151815260200191508051906020019080838360005b8381101561084a57808201518184015260208101905061082f565b50505050905090810190601f1680156108775780820380516001836020036101000a031916815260200191505b509250505060405180910390f35b6108b16004803603602081101561089b57600080fd5b8101908080359060200190929190505050611751565b6040518082815260200191505060405180910390f35b6108f3600480360360208110156108dd57600080fd5b8101908080359060200190929190505050611785565b604051808273ffffffffffffffffffffffffffffffffffffffff1673ffffffffffffffffffffffffffffffffffffffff16815260200191505060405180910390f35b6109776004803603602081101561094b57600080fd5b81019080803573ffffffffffffffffffffffffffffffffffffffff1690602001909291905050506117c2565b6040518082815260200191505060405180910390f35b610aec60048036036101408110156109a457600080fd5b8101908080604001906002806020026040519081016040528092919082600260200280828437600081840152601f19601f82011690508083019250505050505091929192908060800190600280602002604051908101604052809291906000905b82821015610a59578382604002016002806020026040519081016040528092919082600260200280828437600081840152601f19601f82011690508083019250505050505081526020019060010190610a05565b50505050919291929080604001906002806020026040519081016040528092919082600260200280828437600081840152601f19601f820116905080830192505050505050919291929080604001906002806020026040519081016040528092919082600260200280828437600081840152601f19601f8201169050808301925050505050509192919290505050611812565b6040518082815260200191505060405180910390f35b610b5860048036036060811015610b1857600080fd5b8101908080359060200190929190803573ffffffffffffffffffffffffffffffffffffffff16906020019092919080359060200190929190505050611920565b005b610ba860048036036040811015610b7057600080fd5b81019080803573ffffffffffffffffffffffffffffffffffffffff169060200190929190803515159060200190929190505050611a9a565b005b610bd660048036036020811015610bc057600080fd5b8101908080359060200190929190505050611bd4565b604051808273ffffffffffffffffffffffffffffffffffffffff1673ffffffffffffffffffffffffffffffffffffffff16815260200191505060405180910390f35b610d1b60048036036080811015610c2e57600080fd5b81019080803573ffffffffffffffffffffffffffffffffffffffff169060200190929190803573ffffffffffffffffffffffffffffffffffffffff1690602001909291908035906020019092919080359060200190640100000000811115610c9557600080fd5b820183602082011115610ca757600080fd5b80359060200191846001830284011164010000000083111715610cc957600080fd5b91908080601f016020809104026020016040519081016040528093929190818152602001838380828437600081840152601f19601f820116905080830192505050505050509192919290505050611c07565b005b610d4b60048036036020811015610d3357600080fd5b81019080803515159060200190929190505050611c2d565b005b610d7960048036036020811015610d6357600080fd5b8101908080359060200190929190505050611ded565b6040518080602001828103825283818151815260200191508051906020019080838360005b83811015610db9578082015181840152602081019050610d9e565b50505050905090810190601f168015610de65780820380516001836020036101000a031916815260200191505b509250505060405180910390f35b610f7d6004803603610180811015610e0b57600080fd5b81019080803573ffffffffffffffffffffffffffffffffffffffff1690602001909291908035906020019092919080604001906002806020026040519081016040528092919082600260200280828437600081840152601f19601f82011690508083019250505050505091929192908060800190600280602002604051908101604052809291906000905b82821015610eea578382604002016002806020026040519081016040528092919082600260200280828437600081840152601f19601f82011690508083019250505050505081526020019060010190610e96565b50505050919291929080604001906002806020026040519081016040528092919082600260200280828437600081840152601f19601f820116905080830192505050505050919291929080604001906002806020026040519081016040528092919082600260200280828437600081840152601f19601f8201169050808301925050505050509192919290505050611eb4565b005b610fe160048036036040811015610f9557600080fd5b81019080803573ffffffffffffffffffffffffffffffffffffffff169060200190929190803573ffffffffffffffffffffffffffffffffffffffff1690602001909291905050506121b3565b604051808215151515815260200191505060405180910390f35b61103d6004803603602081101561101157600080fd5b81019080803573ffffffffffffffffffffffffffffffffffffffff169060200190929190505050612247565b005b600060016000837bffffffffffffffffffffffffffffffffffffffffffffffffffffffff19167bffffffffffffffffffffffffffffffffffffffffffffffffffffffff1916815260200190815260200160002060009054906101000a900460ff169050919050565b60006003600083815260200190815260200160002060009054906101000a900473ffffffffffffffffffffffffffffffffffffffff169050919050565b60006110ef82611785565b90508273ffffffffffffffffffffffffffffffffffffffff168173ffffffffffffffffffffffffffffffffffffffff161415611193576040517f08c379a000000000000000000000000000000000000000000000000000000000815260040180806020018281038252601f8152602001807f546f2061646472657373206973207468652073616d65206173206f776e65720081525060200191505060405180910390fd5b8073ffffffffffffffffffffffffffffffffffffffff163373ffffffffffffffffffffffffffffffffffffffff1614806111d357506111d281336121b3565b5b611228576040517f08c379a000000000000000000000000000000000000000000000000000000000815260040180806020018281038252602f815260200180613801602f913960400191505060405180910390fd5b826003600084815260200190815260200160002060006101000a81548173ffffffffffffffffffffffffffffffffffffffff021916908373ffffffffffffffffffffffffffffffffffffffff160217905550818373ffffffffffffffffffffffffffffffffffffffff168273ffffffffffffffffffffffffffffffffffffffff167f8c5be1e5ebec7d5bd14f71427d1e84f3dd0314c0f7b2291e5b200ac8c7c3b92560405160405180910390a4505050565b606060108054600181600116156101000203166002900480601f0160208091040260200160405190810160405280929190818152602001828054600181600116156101000203166002900480156113725780601f1061134757610100808354040283529160200191611372565b820191906000526020600020905b81548152906001019060200180831161135557829003601f168201915b5050505050905090565b6060600f8054600181600116156101000203166002900480601f0160208091040260200160405190810160405280929190818152602001828054600181600116156101000203166002900480156114145780601f106113e957610100808354040283529160200191611414565b820191906000526020600020905b8154815290600101906020018083116113f757829003601f168201915b5050505050905090565b6000600880549050905090565b6114353382612452565b61143e57600080fd5b6114498383836124e7565b505050565b61148d828260006040519080825280601f01601f1916602001820160405280156114875781602001600182028038833980820191505090505b5061152a565b5050565b601360009054906101000a900473ffffffffffffffffffffffffffffffffffffffff1681565b60006114c2836117c2565b82106114cd57600080fd5b600660008473ffffffffffffffffffffffffffffffffffffffff1673ffffffffffffffffffffffffffffffffffffffff168152602001908152602001600020828154811061151757fe5b9060005260206000200154905092915050565b505050565b60003373ffffffffffffffffffffffffffffffffffffffff166000809054906101000a900473ffffffffffffffffffffffffffffffffffffffff1673ffffffffffffffffffffffffffffffffffffffff16146115f3576040517f08c379a00000000000000000000000000000000000000000000000000000000081526004018080602001828103825260168152602001807f43616c6c206e6f74206d616465206279204f776e65720000000000000000000081525060200191505060405180910390fd5b600060149054906101000a900460ff1615611676576040517f08c379a000000000000000000000000000000000000000000000000000000000815260040180806020018281038252601c8152602001807f54686520736d61727420636f6e7472616374206973207061757365640000000081525060200191505060405180910390fd5b611680838361250b565b6116898261252c565b92915050565b6116aa83838360405180602001604052806000815250611c07565b505050565b606060118054600181600116156101000203166002900480601f0160208091040260200160405190810160405280929190818152602001828054600181600116156101000203166002900480156117475780601f1061171c57610100808354040283529160200191611747565b820191906000526020600020905b81548152906001019060200180831161172a57829003601f168201915b5050505050905090565b600061175b61141e565b821061176657600080fd5b6008828154811061177357fe5b90600052602060002001549050919050565b60006002600083815260200190815260200160002060009054906101000a900473ffffffffffffffffffffffffffffffffffffffff169050919050565b600061180b600460008473ffffffffffffffffffffffffffffffffffffffff1673ffffffffffffffffffffffffffffffffffffffff168152602001908152602001600020612660565b9050919050565b6000848484846040516020018085600260200280838360005b8381101561184657808201518184015260208101905061182b565b505050509050018460026000925b8184101561189a5782846020020151600260200280838360005b8381101561188957808201518184015260208101905061186e565b505050509050019260010192611854565b9250505083600260200280838360005b838110156118c55780820151818401526020810190506118aa565b5050505090500182600260200280838360005b838110156118f35780820151818401526020810190506118d8565b50505050905001945050505050604051602081830303815290604052805190602001209050949350505050565b6119286136ff565b60405180604001604052808581526020018473ffffffffffffffffffffffffffffffffffffffff168152509050601481908060018154018082558091505090600182039060005260206000209060020201600090919290919091506000820151816000015560208201518160010160006101000a81548173ffffffffffffffffffffffffffffffffffffffff021916908373ffffffffffffffffffffffffffffffffffffffff160217905550505050826015600084815260200190815260200160002060006101000a81548173ffffffffffffffffffffffffffffffffffffffff021916908373ffffffffffffffffffffffffffffffffffffffff1602179055507f2ee924636d4738f0d8331246b98855dad51c16ce1a624da2616c35894371cec08484604051808381526020018273ffffffffffffffffffffffffffffffffffffffff1673ffffffffffffffffffffffffffffffffffffffff1681526020019250505060405180910390a150505050565b3373ffffffffffffffffffffffffffffffffffffffff168273ffffffffffffffffffffffffffffffffffffffff161415611ad357600080fd5b80600560003373ffffffffffffffffffffffffffffffffffffffff1673ffffffffffffffffffffffffffffffffffffffff16815260200190815260200160002060008473ffffffffffffffffffffffffffffffffffffffff1673ffffffffffffffffffffffffffffffffffffffff16815260200190815260200160002060006101000a81548160ff0219169083151502179055508173ffffffffffffffffffffffffffffffffffffffff163373ffffffffffffffffffffffffffffffffffffffff167f17307eab39ab6107e8899845ad3d59bd9653f200f220920489ca2b5937696c3183604051808215151515815260200191505060405180910390a35050565b60156020528060005260406000206000915054906101000a900473ffffffffffffffffffffffffffffffffffffffff1681565b611c1284848461142b565b611c1e8484848461266e565b611c2757600080fd5b50505050565b3373ffffffffffffffffffffffffffffffffffffffff166000809054906101000a900473ffffffffffffffffffffffffffffffffffffffff1673ffffffffffffffffffffffffffffffffffffffff1614611cef576040517f08c379a00000000000000000000000000000000000000000000000000000000081526004018080602001828103825260168152602001807f43616c6c206e6f74206d616465206279204f776e65720000000000000000000081525060200191505060405180910390fd5b80600060146101000a81548160ff021916908315150217905550600060149054906101000a900460ff1615611d86577f62e78cea01bee320cd4e420270b5ea74000d11b0c9f74754ebdbfc544b05a25833604051808273ffffffffffffffffffffffffffffffffffffffff1673ffffffffffffffffffffffffffffffffffffffff16815260200191505060405180910390a1611dea565b7f5db9ee0a495bf2e6ff9c91a7834c1ba4fdd244a5e8aa4e537bd38aeae4b073aa33604051808273ffffffffffffffffffffffffffffffffffffffff1673ffffffffffffffffffffffffffffffffffffffff16815260200191505060405180910390a15b50565b6060611df882612857565b611e0157600080fd5b601260008381526020019081526020016000208054600181600116156101000203166002900480601f016020809104026020016040519081016040528092919081815260200182805460018160011615610100020316600290048015611ea85780601f10611e7d57610100808354040283529160200191611ea8565b820191906000526020600020905b815481529060010190602001808311611e8b57829003601f168201915b50505050509050919050565b6000611ec285858585611812565b9050601360009054906101000a900473ffffffffffffffffffffffffffffffffffffffff1673ffffffffffffffffffffffffffffffffffffffff1663621e9ec0868686866040518563ffffffff1660e01b81526004018085600260200280838360005b83811015611f40578082015181840152602081019050611f25565b505050509050018460026000925b81841015611f945782846020020151600260200280838360005b83811015611f83578082015181840152602081019050611f68565b505050509050019260010192611f4e565b9250505083600260200280838360005b83811015611fbf578082015181840152602081019050611fa4565b5050505090500182600260200280838360005b83811015611fed578082015181840152602081019050611fd2565b5050505090500194505050505060206040518083038186803b15801561201257600080fd5b505afa158015612026573d6000803e3d6000fd5b505050506040513d602081101561203c57600080fd5b81019080805190602001909291905050506120bf576040517f08c379a000000000000000000000000000000000000000000000000000000000815260040180806020018281038252601d8152602001807f536f6c7574696f6e2069732077726f6e672e2054727920616761696e2e00000081525060200191505060405180910390fd5b600073ffffffffffffffffffffffffffffffffffffffff166015600083815260200190815260200160002060009054906101000a900473ffffffffffffffffffffffffffffffffffffffff1673ffffffffffffffffffffffffffffffffffffffff1614612194576040517f08c379a00000000000000000000000000000000000000000000000000000000081526004018080602001828103825260168152602001807f536f6c7574696f6e20616c72656164792065786973740000000000000000000081525060200191505060405180910390fd5b61219f868883611920565b6121a9878761152f565b5050505050505050565b6000600560008473ffffffffffffffffffffffffffffffffffffffff1673ffffffffffffffffffffffffffffffffffffffff16815260200190815260200160002060008373ffffffffffffffffffffffffffffffffffffffff1673ffffffffffffffffffffffffffffffffffffffff16815260200190815260200160002060009054906101000a900460ff16905092915050565b3373ffffffffffffffffffffffffffffffffffffffff166000809054906101000a900473ffffffffffffffffffffffffffffffffffffffff1673ffffffffffffffffffffffffffffffffffffffff1614612309576040517f08c379a00000000000000000000000000000000000000000000000000000000081526004018080602001828103825260168152602001807f43616c6c206e6f74206d616465206279204f776e65720000000000000000000081525060200191505060405180910390fd5b600073ffffffffffffffffffffffffffffffffffffffff168173ffffffffffffffffffffffffffffffffffffffff1614156123ac576040517f08c379a00000000000000000000000000000000000000000000000000000000081526004018080602001828103825260148152602001807f41646472657373206973206e6f742076616c696400000000000000000000000081525060200191505060405180910390fd5b806000806101000a81548173ffffffffffffffffffffffffffffffffffffffff021916908373ffffffffffffffffffffffffffffffffffffffff1602179055507fcfaaa26691e16e66e73290fc725eee1a6b4e0e693a1640484937aac25ffb55a481604051808273ffffffffffffffffffffffffffffffffffffffff1673ffffffffffffffffffffffffffffffffffffffff16815260200191505060405180910390a150565b60008061245e83611785565b90508073ffffffffffffffffffffffffffffffffffffffff168473ffffffffffffffffffffffffffffffffffffffff1614806124cd57508373ffffffffffffffffffffffffffffffffffffffff166124b5846110a7565b73ffffffffffffffffffffffffffffffffffffffff16145b806124de57506124dd81856121b3565b5b91505092915050565b6124f28383836128c9565b6124fc8382612b5e565b6125068282612cfc565b505050565b6125158282612dc3565b61251f8282612cfc565b61252881613034565b5050565b61253581612857565b61258a576040517f08c379a00000000000000000000000000000000000000000000000000000000081526004018080602001828103825260298152602001806138306029913960400191505060405180910390fd5b61263660118054600181600116156101000203166002900480601f0160208091040260200160405190810160405280929190818152602001828054600181600116156101000203166002900480156126235780601f106125f857610100808354040283529160200191612623565b820191906000526020600020905b81548152906001019060200180831161260657829003601f168201915b505050505061263183613080565b6131ad565b60126000838152602001908152602001600020908051906020019061265c92919061372f565b5050565b600081600001549050919050565b600061268f8473ffffffffffffffffffffffffffffffffffffffff166131f1565b61269c576001905061284f565b60008473ffffffffffffffffffffffffffffffffffffffff1663150b7a02338887876040518563ffffffff1660e01b8152600401808573ffffffffffffffffffffffffffffffffffffffff1673ffffffffffffffffffffffffffffffffffffffff1681526020018473ffffffffffffffffffffffffffffffffffffffff1673ffffffffffffffffffffffffffffffffffffffff16815260200183815260200180602001828103825283818151815260200191508051906020019080838360005b8381101561277757808201518184015260208101905061275c565b50505050905090810190601f1680156127a45780820380516001836020036101000a031916815260200191505b5095505050505050602060405180830381600087803b1580156127c657600080fd5b505af11580156127da573d6000803e3d6000fd5b505050506040513d60208110156127f057600080fd5b8101908080519060200190929190505050905063150b7a0260e01b7bffffffffffffffffffffffffffffffffffffffffffffffffffffffff1916817bffffffffffffffffffffffffffffffffffffffffffffffffffffffff1916149150505b949350505050565b6000806002600084815260200190815260200160002060009054906101000a900473ffffffffffffffffffffffffffffffffffffffff169050600073ffffffffffffffffffffffffffffffffffffffff168173ffffffffffffffffffffffffffffffffffffffff161415915050919050565b8273ffffffffffffffffffffffffffffffffffffffff166128e982611785565b73ffffffffffffffffffffffffffffffffffffffff1614612972576040517f08c379a00000000000000000000000000000000000000000000000000000000081526004018080602001828103825260198152602001807f41646472657373206973206e6f742066726f6d206f776e65720000000000000081525060200191505060405180910390fd5b600073ffffffffffffffffffffffffffffffffffffffff168273ffffffffffffffffffffffffffffffffffffffff161415612a15576040517f08c379a00000000000000000000000000000000000000000000000000000000081526004018080602001828103825260188152602001807f4164647265732027746f27206973206e6f742076616c6964000000000000000081525060200191505060405180910390fd5b612a1e8161323c565b612a65600460008573ffffffffffffffffffffffffffffffffffffffff1673ffffffffffffffffffffffffffffffffffffffff1681526020019081526020016000206132fa565b612aac600460008473ffffffffffffffffffffffffffffffffffffffff1673ffffffffffffffffffffffffffffffffffffffff16815260200190815260200160002061331d565b816002600083815260200190815260200160002060006101000a81548173ffffffffffffffffffffffffffffffffffffffff021916908373ffffffffffffffffffffffffffffffffffffffff160217905550808273ffffffffffffffffffffffffffffffffffffffff168473ffffffffffffffffffffffffffffffffffffffff167fddf252ad1be2c89b69c2b068fc378daa952ba7f163c4a11628f55a4df523b3ef60405160405180910390a4505050565b6000612bb66001600660008673ffffffffffffffffffffffffffffffffffffffff1673ffffffffffffffffffffffffffffffffffffffff1681526020019081526020016000208054905061333390919063ffffffff16565b9050600060076000848152602001908152602001600020549050818114612ca3576000600660008673ffffffffffffffffffffffffffffffffffffffff1673ffffffffffffffffffffffffffffffffffffffff1681526020019081526020016000208381548110612c2357fe5b9060005260206000200154905080600660008773ffffffffffffffffffffffffffffffffffffffff1673ffffffffffffffffffffffffffffffffffffffff1681526020019081526020016000208381548110612c7b57fe5b9060005260206000200181905550816007600083815260200190815260200160002081905550505b600660008573ffffffffffffffffffffffffffffffffffffffff1673ffffffffffffffffffffffffffffffffffffffff168152602001908152602001600020805480919060019003612cf591906137af565b5050505050565b600660008373ffffffffffffffffffffffffffffffffffffffff1673ffffffffffffffffffffffffffffffffffffffff168152602001908152602001600020805490506007600083815260200190815260200160002081905550600660008373ffffffffffffffffffffffffffffffffffffffff1673ffffffffffffffffffffffffffffffffffffffff1681526020019081526020016000208190806001815401808255809150509060018203906000526020600020016000909192909190915055505050565b600073ffffffffffffffffffffffffffffffffffffffff166002600083815260200190815260200160002060009054906101000a900473ffffffffffffffffffffffffffffffffffffffff1673ffffffffffffffffffffffffffffffffffffffff1614612e98576040517f08c379a00000000000000000000000000000000000000000000000000000000081526004018080602001828103825260208152602001807f5468697320746f6b656e20697320616c7265616479207265676973746572656481525060200191505060405180910390fd5b600073ffffffffffffffffffffffffffffffffffffffff168273ffffffffffffffffffffffffffffffffffffffff161415612f3b576040517f08c379a00000000000000000000000000000000000000000000000000000000081526004018080602001828103825260148152602001807f41646472657373206973206e6f742076616c696400000000000000000000000081525060200191505060405180910390fd5b816002600083815260200190815260200160002060006101000a81548173ffffffffffffffffffffffffffffffffffffffff021916908373ffffffffffffffffffffffffffffffffffffffff160217905550612fd4600460008473ffffffffffffffffffffffffffffffffffffffff1673ffffffffffffffffffffffffffffffffffffffff16815260200190815260200160002061331d565b808273ffffffffffffffffffffffffffffffffffffffff16600073ffffffffffffffffffffffffffffffffffffffff167fddf252ad1be2c89b69c2b068fc378daa952ba7f163c4a11628f55a4df523b3ef60405160405180910390a45050565b6008805490506009600083815260200190815260200160002081905550600881908060018154018082558091505090600182039060005260206000200160009091929091909150555050565b606060008214156130c8576040518060400160405280600181526020017f300000000000000000000000000000000000000000000000000000000000000081525090506131a8565b600082905060005b600082146130f2578080600101915050600a82816130ea57fe5b0491506130d0565b6060816040519080825280601f01601f1916602001820160405280156131275781602001600182028038833980820191505090505b50905060006001830390505b600086146131a057600a868161314557fe5b0660300160f81b8282806001900393508151811061315f57fe5b60200101907effffffffffffffffffffffffffffffffffffffffffffffffffffffffffffff1916908160001a905350600a868161319857fe5b049550613133565b819450505050505b919050565b60606131e9838360405180602001604052806000815250604051806020016040528060008152506040518060200160405280600081525061337d565b905092915050565b60008060007fc5d2460186f7233c927e7db2dcc703c0e500b653ca82273b7bfad8045d85a47060001b9050833f915080821415801561323357506000801b8214155b92505050919050565b600073ffffffffffffffffffffffffffffffffffffffff166003600083815260200190815260200160002060009054906101000a900473ffffffffffffffffffffffffffffffffffffffff1673ffffffffffffffffffffffffffffffffffffffff16146132f75760006003600083815260200190815260200160002060006101000a81548173ffffffffffffffffffffffffffffffffffffffff021916908373ffffffffffffffffffffffffffffffffffffffff1602179055505b50565b6133126001826000015461333390919063ffffffff16565b816000018190555050565b6001816000016000828254019250508190555050565b600061337583836040518060400160405280601e81526020017f536166654d6174683a207375627472616374696f6e206f766572666c6f77000081525061363f565b905092915050565b6060808690506060869050606086905060608690506060869050606081518351855187518951010101016040519080825280601f01601f1916602001820160405280156133d95781602001600182028038833980820191505090505b509050606081905060008090506000809050600090505b885181101561345e5788818151811061340557fe5b602001015160f81c60f81b83838060010194508151811061342257fe5b60200101907effffffffffffffffffffffffffffffffffffffffffffffffffffffffffffff1916908160001a90535080806001019150506133f0565b600090505b87518110156134d15787818151811061347857fe5b602001015160f81c60f81b83838060010194508151811061349557fe5b60200101907effffffffffffffffffffffffffffffffffffffffffffffffffffffffffffff1916908160001a9053508080600101915050613463565b600090505b8651811015613544578681815181106134eb57fe5b602001015160f81c60f81b83838060010194508151811061350857fe5b60200101907effffffffffffffffffffffffffffffffffffffffffffffffffffffffffffff1916908160001a90535080806001019150506134d6565b600090505b85518110156135b75785818151811061355e57fe5b602001015160f81c60f81b83838060010194508151811061357b57fe5b60200101907effffffffffffffffffffffffffffffffffffffffffffffffffffffffffffff1916908160001a9053508080600101915050613549565b600090505b845181101561362a578481815181106135d157fe5b602001015160f81c60f81b8383806001019450815181106135ee57fe5b60200101907effffffffffffffffffffffffffffffffffffffffffffffffffffffffffffff1916908160001a90535080806001019150506135bc565b82995050505050505050505095945050505050565b60008383111582906136ec576040517f08c379a00000000000000000000000000000000000000000000000000000000081526004018080602001828103825283818151815260200191508051906020019080838360005b838110156136b1578082015181840152602081019050613696565b50505050905090810190601f1680156136de5780820380516001836020036101000a031916815260200191505b509250505060405180910390fd5b5060008385039050809150509392505050565b604051806040016040528060008152602001600073ffffffffffffffffffffffffffffffffffffffff1681525090565b828054600181600116156101000203166002900490600052602060002090601f016020900481019282601f1061377057805160ff191683800117855561379e565b8280016001018555821561379e579182015b8281111561379d578251825591602001919060010190613782565b5b5090506137ab91906137db565b5090565b8154818355818111156137d6578183600052602060002091820191016137d591906137db565b5b505050565b6137fd91905b808211156137f95760008160009055506001016137e1565b5090565b9056fe55736572206973206e6f7420617574686f72697a656420746f206d616b652074686973207472616e73616374696f6e546f6b657320646f6573206e6f7420657869737420616e642063616e6e6f7420626520736574746564a265627a7a723058207fd2235be43aff21155175eba6b489386000a57e9804a329b26940dc4b1c00bf64736f6c6343000509003268747470733a2f2f73332d75732d776573742d322e616d617a6f6e6177732e636f6d2f756461636974792d626c6f636b636861696e2f63617073746f6e652f",
  "source": "pragma solidity >=0.4.21 <0.6.2;\n\nimport './Verifier.sol';\nimport './ERC721Mintable.sol';\n\n\n// TODO define a contract call to the zokrates generated solidity contract <Verifier> or <renamedVerifier>\ncontract _Verifier is Verifier {}\n\n\n// TODO define another contract named SolnSquareVerifier that inherits from your ERC721Mintable class\ncontract SolnSquareVerifier is ERC721Mintable {\n\n    _Verifier public verifier;\n\n    constructor(address _verifier) ERC721Mintable() public {\n        verifier = _Verifier(_verifier);\n    }\n\n    // TODO define a solutions struct that can hold an index & an address\n        struct Solution {\n            uint256 index;\n            address addrs;\n        }\n\n    // TODO define an array of the above struct\n    Solution[] solutions;\n\n    // TODO define a mapping to store unique solutions submitted\n    mapping (bytes32 => address) public submitedSolutions;\n\n    // TODO Create an event to emit when a solution is added\n    event AddedSolution(uint index, address addr);\n\n    // TODO Create a function to add the solutions to the array and emit the event\n    function getKey(uint[2] memory a, uint[2][2] memory b, \n                    uint[2] memory c, uint[2] memory input) \n                    pure public returns(bytes32) {\n        \n        return keccak256(abi.encode(a, b, c, input));\n    }\n\n    function calculateSolution(uint _index, address _address, bytes32 _key) public {\n        Solution memory solution = Solution({index: _index, addrs: _address});\n        solutions.push(solution);\n        submitedSolutions[_key] = _address;\n        emit AddedSolution(_index, _address);\n    }\n\n    // TODO Create a function to mint new NFT only after the solution has been verified\n    //  - make sure the solution is unique (has not been used before)\n    //  - make sure you handle metadata as well as tokenSuplly\n\n    function mintToken(\n        address _to, \n        uint256 _tokenId, \n        uint[2] memory a,\n        uint[2][2] memory b, \n        uint[2] memory c, \n        uint[2] memory input) public {\n\n            bytes32 _key = getKey(a,b,c,input);\n            require(verifier.verifyTx(a,b,c,input), \"Solution is wrong. Try again.\");\n            require(submitedSolutions[_key] == address(0), \"Solution already exist\");\n            calculateSolution(_tokenId, _to, _key);\n            super.mint(_to, _tokenId);\n        }\n    }",
  "sourcePath": "/Users/mariobriseno/Blockchain-Capstone/eth-contracts/contracts/SolnSquareVerifier.sol",
  "compiler": {
    "name": "solc",
    "version": "0.5.9+commit.e560f70d.Emscripten.clang"
  },
  "schemaVersion": "3.0.23",
  "updatedAt": "2020-10-19T00:30:59.645Z",
  "devdoc": {
    "methods": {
      "isApprovedForAll(address,address)": {
        "details": "Tells whether an operator is approved by a given owner",
        "params": {
          "operator": "operator address which you want to query the approval of",
          "owner": "owner address which you want to query the approval of"
        },
        "return": "bool whether the given operator is approved by the given owner"
      },
      "setApprovalForAll(address,bool)": {
        "details": "Sets or unsets the approval of a given operator An operator is allowed to transfer all tokens of the sender on their behalf",
        "params": {
          "approved": "representing the status of the approval to be set",
          "to": "operator address to set the approval"
        }
      },
      "supportsInterface(bytes4)": {
        "details": "implement supportsInterface(bytes4) using a lookup table"
      },
      "tokenByIndex(uint256)": {
        "details": "Gets the token ID at a given index of all the tokens in this contract Reverts if the index is greater or equal to the total number of tokens",
        "params": {
          "index": "uint256 representing the index to be accessed of the tokens list"
        },
        "return": "uint256 token ID at the given index of the tokens list"
      },
      "tokenOfOwnerByIndex(address,uint256)": {
        "details": "Gets the token ID at a given index of the tokens list of the requested owner",
        "params": {
          "index": "uint256 representing the index to be accessed of the requested tokens list",
          "owner": "address owning the tokens list to be accessed"
        },
        "return": "uint256 token ID at the given index of the tokens list owned by the requested address"
      },
      "totalSupply()": {
        "details": "Gets the total amount of tokens stored by the contract",
        "return": "uint256 representing the total amount of tokens"
      }
    }
  },
  "userdoc": {
    "methods": {}
  }
}